:030000000209CD25
:0C09CD00787FE4F6D8FD758122020A1440
:0A0B5200C0F9A4B0999282F88090D7
:100B1D000312474F0005085741495400050D535422
:030B2D004F500026
:100AC200C292C291C2907F017E0012090FD290128F
:100AD2000A59C290D2917F027E0012090F120A595E
:100AE200C291D2927F037E0012090F120A59C2925A
:020AF20080D4AE
:040A59007F017E009B
:040A5D008E178F1849
:100A610078197C007D007BFF7A0B79527E007F0A2A
:100A71001208D0E4FFEFD39518E5176480F874806D
:100A810098503DE4FDFC0DBD00010CBC61F8BDA812
:100A9100F5E4FBFA74192BF8E6F5A0E4FCFD0DBDB5
:100AA10000010CBC61F8BDA8F5EB64094A7003852F
:100AB10019A00BBB00010AEB640A4A70D70F80B57D
:010AC1002212
:050B09007FC0120B4447
:0E0B0E00E4FFFE0FBF00010EBE13F8BF88F516
:010B1C0022B6
:0E0B44008FB0C293C294D295120B0EC29522AE
:050B31002516F8E6FFA7
:0E0B36008FB0D293C294D295120B0EC29522AC
:10090F008E178F187F01120B447F38120B44120B76
:10091F000E7F80120B44120B0E7F0C120B44120B26
:10092F000EE51864014517702C120B09E4F515F547
:10093F00167B007A007912120AF4C3E5169FE515AB
:10094F009E50127412120B31120B0E0516E5167013
:10095F00E0051580DCE51864024517702C120B09B1
:10096F00E4F515F5167B007A007908120AF4C3E551
:10097F00169FE5159E50127408120B31120B0E05BF
:10098F0016E51670E0051580DCE518640345177051
:10099F002C120B09E4F515F5167B007A00790D1270
:1009AF000AF4C3E5169FE5159E5012740D120B3114
:0E09BF00120B0E0516E51670E0051580DC2201
:1009D900020AC2E493A3F8E493A34003F68001F268
:1009E90008DFF48029E493A3F85407240CC8C3331F
:1009F900C4540F4420C8834004F456800146F6DFEE
:100A0900E4800B0102040810204080900B1DE47E55
:100A1900019360BCA3FF543F30E509541FFEE493E2
:100A2900A360010ECF54C025E060A840B8E493A3A9
:100A3900FAE493A3F8E493A3C8C582C8CAC583CAD4
:100A4900F0A3C8C582C8CAC583CADFE9DEE780BE8C
:010B300000C4
:10080000E709F608DFFA8046E709F208DFFA803EDA
:1008100088828C83E709F0A3DFFA8032E309F608C7
:10082000DFFA8078E309F208DFFA807088828C832F
:10083000E309F0A3DFFA806489828A83E0A3F608E3
:10084000DFFA805889828A83E0A3F208DFFA804CBD
:1008500080D280FA80C680D4806980F28033801094
:1008600080A680EA809A80A880DA80E280CA8033FD
:1008700089828A83ECFAE493A3C8C582C8CCC58375
:10088000CCF0A3C8C582C8CCC583CCDFE9DEE78045
:100890000D89828A83E493A3F608DFF9ECFAA9F0C4
:1008A000EDFB2289828A83ECFAE0A3C8C582C8CC1A
:1008B000C583CCF0A3C8C582C8CCC583CCDFEADE33
:1008C000E880DB89828A83E493A3F208DFF980CC95
:1008D00088F0EF60010E4E60C388F0ED2402B4048E
:1008E0000050B9F582EB2402B4040050AF23234535
:0608F00082239008507302
:100AF400E4FFFE1208F6600C0FEF70010E09E970B6
:050B0400F20A80EF225F
:1008F600BB010689828A83E0225002E722BBFE0200
:09090600E32289828A83E4932232
:00000001FF
